:020000040800F2
:10000000000F002035060008390400083B040008F2
:100010003F040008430400084704000800000000F3
:100020000000000000000000000000004B04000879
:100030004D040008000000004F04000851040008AF
:100040004F0600084F0600084F0600084F0600083C
:100050004F0600084F0600084F0600084F0600082C
:100060004F0600084F0600084F0600084F0600081C
:100070004F0600084F0600084F0600084F0600080C
:100080004F0600084F0600084F0600084F060008FC
:100090004F0600084F0600084F0600084F060008EC
:1000A0004F060008CB4600084F0600084F06000820
:1000B000D1450008E9450008014600084F06000840
:1000C0004F0600084F0600084F0600084F060008BC
:1000D0004F060008852B0008353600084F0600083B
:1000E000435800084F0600084F0600084F06000856
:1000F0004F0600084F0600084F0600084F0600088C
:100100004F0600084F060008194600084F06000871
:100110004F0600084F0600084F0600084F0600086B
:100120004F0600084F0600084F0600084F0600085B
:1001300000F002F800F0B0F80AA090E8000C824449
:100140008344AAF10107DA4501D100F0A5F8AFF226
:10015000090EBAE80F0013F0010F18BFFB1A43F0A5
:100160000103184730E1000050E100000A444FF05D
:10017000000C10F8013B13F0070408BF10F8014B06
:100180001D1108BF10F8015B641E05D010F8016B4B
:10019000641E01F8016BF9D113F0080F1EBF10F8AF
:1001A000014BAD1C0C1B09D16D1E58BF01F801CBD2
:1001B000FAD505E014F8016B01F8016B6D1EF9D555
:1001C0009142D6D37047000000230024002500266A
:1001D000103A28BF78C1FBD8520728BF30C148BFAA
:1001E0000B6070476E2909F07084702909F0CD8585
:1001F00066290CF0748365290CF0718367290CF073
:100200006E836129AFF3008003681B0A28BF41F0A9
:100210008001692909F0E481642909F0E1817529E7
:1002200009F0DE816F2909F05A85782909F099854E
:10023000E92909F0F584E42909F0F284F52909F0A7
:10024000EF84EF2909F05785F82909F098850368AC
:10025000DB0928BF41F0800163290AF0258073295A
:100260000AF02A80E3290AF03580F3290AF03A805F
:10027000002070471FB50AF0B7F8040000200021E5
:100280000BF050F9401C6060002000210BF034F9A5
:10029000E0601FBD10B510BD0AF078F81146FFF7F9
:1002A000E9FF00F00FF80AF055F903B4FFF7F2FF89
:1002B00003BC02F0F1FB000030BF72B662B680F3FF
:1002C00008887047022003F0E1F902F07BFB01206F
:1002D00003F0C6FA03F032FB03F092FB002141F673
:1002E0001F4003F099FF04F0F4FE03F03EFE4FF4CC
:1002F000E13002F0EBFB4FF4E13003F04BF94FF447
:10030000E13004F0DAFC03F0EFFF04F051F804F000
:1003100099F804F0E1F804F08BF903F0CFFE04F053
:10032000F5F908F09CFB08F0AEFB03F031FB04F09C
:1003300081FC6BE036480078002867D035480068BB
:100340000BF0B7FB06460022334B0BF019FC0446BA
:100350000022324B0BF012FD03D8314831490860BE
:1003600020E02C4800680BF0A4FB064600222A4B34
:100370000BF006FC044600222B4B0BF0C5FB03D808
:100380002A48284908600DE0224800680BF091FBDC
:1003900006460022204B0BF0F3FB04460BF0D8F886
:1003A00020490860224800680BF083FB06460022C3
:1003B000194B0BF0E5FB04460022184B0BF0DEFC5A
:1003C00003D817481B49086020E0194800680BF063
:1003D00070FB06460022104B0BF0D2FB04460022B5
:1003E000114B0BF091FB03D81048124908600DE047
:1003F0000F4800680BF05DFB06460022064B0BF031
:10040000BFFB04460BF0A4F80A49086092E700001D
:1004100028010020240100200000D03F00002E40D1
:10042000000070419400002000002EC0000070C148
:100430002001002090000020704700BFFEE700BFB1
:10044000FEE700BFFEE700BFFEE77047704770475A
:10045000704700000CB50020019000906C480068C7
:1004600040F480306A49086000BF6948006800F4C1
:10047000003000900198401C0190009818B9019834
:10048000B0F5A06FF1D16248006800F4003010B1FF
:100490000120009001E0002000900098012843D145
:1004A0005C48006840F010005A490860084600683F
:1004B00020F0030008600846006840F00200086071
:1004C00053484068524948600846406848600846BA
:1004D000406840F4806048600846406820F47C1022
:1004E00048600846406840F4E810486008460068E4
:1004F00040F08070086000BF4548006800F0007060
:100500000028F9D04248406820F003004049486084
:100510000846406840F00200486000BF3C48406820
:1005200000F00C000828F9D10CBD10B5FFF792FFC0
:1005300010BD10B53648006840F00100344908602D
:100540000846406834490840314948600846006818
:10055000324908402E4908600846006820F480208F
:1005600008600846406820F4FE0048604FF41F0011
:100570008860FFF7DAFF4FF000602949086010BD7E
:1005800010B5002100200022214B5B6803F00C0114
:1005900021B1042906D0082928D107E0214B224C9B
:1005A000236027E01F4B204C236023E0184B5B683F
:1005B00003F47010164B5B6803F48032022303EBE4
:1005C000904022B9194B4343174C23600DE0104B68
:1005D0005B6803F4003323B1144B4343124C236094
:1005E00003E0104B4343104C236003E00D4B0E4CD3
:1005F000236000BF00BF064B5B68C3F303130C4CC2
:10060000E15C094B1B68CB40074C236010BD000028
:1006100000100240002002400000FFF8FFFFF6FE3D
:1006200008ED00E000127A00D000002000093D0033
:10063000D40000200948804709480047FEE7FEE74C
:10064000FEE7FEE7FEE7FEE7FEE7FEE7FEE7FEE782
:1006500004480549054A064B704700003305000869
:100660003101000800090020000F0020000B0020CD
:10067000000B002031490143314A1160704770B5C9
:10068000002100230F22C47804B32D4C246804F405
:10069000E064C4F5E064210AC1F10403CA4044786F
:1006A00004FA03F18478144021430901254C0678AB
:1006B000A155047804F01F050124AC4005786D11A4
:1006C000AD0005F1E025C5F8004109E0047804F02B
:1006D0001F050124AC401C4D0678761145F82640D4
:1006E00070BD1A4A0A400243154B1B1F1A6070471F
:1006F00039B1134A121D12680243114B1B1D1A60B7
:1007000006E00F4A121D126882430D4B1B1D1A6032
:100710007047042808D14FF0E021096941F0040135
:100720004FF0E022116107E04FF0E021096921F06C
:1007300004014FF0E0221161704700000000FA054B
:100740000CED00E000E400E080E100E080FFFF1F2E
:1007500010B50446FA48844208D10121401500F042
:10076000D5FF0021601500F0D1FF17E0F548844265
:1007700008D10121001500F0C9FF0021201500F06B
:10078000C5FF0BE0F048844208D10121C80300F006
:10079000BDFF00214FF4004000F0B8FF10BD30B5A0
:1007A0000246002000235068E84C20400D790C6878
:1007B00044EA0524204350609068E54C2040D1E98C
:1007C00002542C434D7944EA450420439060D06A9A
:1007D00020F470000C7C641EE4B2234340EA035012
:1007E000D06230BD00210160017141718160C16042
:1007F00001210174704721B1826842F001028260D8
:1008000003E0826822F001028260704721B18268B1
:1008100042F48072826003E0826822F48072826017
:10082000704710B50023CBB21AB144681C43446032
:1008300002E044689C43446010BD816841F00801B7
:1008400081607047014600208A6802F008020AB100
:10085000012000E000207047816841F004018160C0
:100860007047014600208A6802F004020AB10120A4
:1008700000E00020704721B1826842F4A00282604B
:1008800003E0826822F4A0028260704701460020E3
:100890008A6802F480020AB1012000E0002070475B
:1008A00010B50A4600210023416821F46041531E1F
:1008B00041EA4331416010BD21B1426842F4006217
:1008C000426003E0426822F4006242607047F0B583
:1008D00004460D4600200021092D11DDE068A5F138
:1008E0000A0606EB4607072606FA07F18843A5F134
:1008F0000A0606EB460603FA06F10843E0600CE040
:10090000206905EB4507072606FA07F1884305EB42
:10091000450603FA06F108432061072A0FDA606BE7
:10092000561E06EB86071F2606FA07F18843561E59
:1009300006EB860605FA06F10843606322E00D2AFD
:100940000FDA206BD61F06EB86071F2606FA07F183
:100950008843D61F06EB860605FA06F10843206396
:1009600010E0E06AA2F10D0606EB86071F2606FAE4
:1009700007F18843A2F10D0606EB860605FA06F19B
:100980000843E062F0BD21B1826842F480128260C7
:1009900003E0826822F48012826070470146C86CCE
:1009A00080B2704766484C300068704721B1426899
:1009B00042F48062426003E0426822F48062426056
:1009C000704721B1426842F48052426003E04268BD
:1009D00022F48052426070470A460021816821F467
:1009E000E04111438160704721B1826842F40042C6
:1009F000826003E0826822F400428260704721B185
:100A0000826842F40212826003E0826822F40212D9
:100A100082607047014600208A6802F400120AB121
:100A2000012000E000207047F0B504461546002084
:100A300000220026092911DDE068A1F10A0707EB71
:100A4000470C072707FA0CF29043A1F10A0707EBBE
:100A5000470703FA07F21043E0600CE0206901EB5E
:100A6000410C072707FA0CF2904301EB410703FA08
:100A700007F210432061A06BC0F30156EF1C06F192
:100A8000010CA7EB0C0707EB870C1F2707FA0CF2EA
:100A90009043EF1C06F1010CA7EB0C0707EB87074F
:100AA00001FA07F21043A063F0BD10B50A46002119
:100AB0000023816B21F44011531E41EA03518163ED
:100AC00010BD08B5002300930090009B0B440093D9
:100AD000009B1A6008BD08B50246002000900092F5
:100AE00001F12800009B184400900098006880B233
:100AF00008BD0A4600214168164B19401143416068
:100B000070474162826270470A460021416821F0C5
:100B10001F0111434160704740B10949083109681C
:100B200041F40001064A0832116007E00449083127
:100B3000096821F40001024A083211607047000080
:100B40000024014000280140003C0140FFFEF0FF6E
:100B5000FDF7F1FFFFFD3FFF0246002013680B4049
:100B60000BB1012000E000207047CA4302607047CB
:100B700070B502460020002300240B125568CEB247
:100B800005EA060415681D4015B10CB1012000E00E
:100B9000002070BD00220A12D3430360704700009A
:100BA00010B5012000F0CCFD002000F0C9FD10BD03
:100BB0002A49086070472949091F0860704727497A
:100BC00084310860704701460020254A10884FF69E
:100BD0007F4210400843224A10807047014600209F
:100BE0001F4A10884FF68072104008431C4A10803C
:100BF000704708B500220092194A2C3A0092009AD8
:100C000002440092009A116008BD08B50146002018
:100C1000009013482C3800900098084400900098E9
:100C2000008808BD0D489C300068C0B270470C4871
:100C30000830008840F001000949083108807047F9
:100C40000648A0300068C0B27047054808300088E8
:100C500040F00200024908310880704704860D42C6
:100C60002C6C004001684FF6FE72114001600021BB
:100C7000016041608160C1608D49884208D18C4922
:100C80000839496841F00F01894A083A51608AE001
:100C900087491431884208D185490839496841F0AB
:100CA000F001834A083A51607DE081492831884249
:100CB00008D17F490839496841F470617C4A083A93
:100CC000516070E07A493C31884208D1784908394E
:100CD000496841F47041764A083A516063E07449CA
:100CE0005031884208D172490839496841F470216D
:100CF0006F4A083A516056E06D496431884208D124
:100D00006B490839496841F47001694A083A5160F1
:100D100049E067497831884208D16549083949680E
:100D200041F07061624A083A51603CE06149884292
:100D300006D1011F096841F00F01021F116032E066
:100D40005C491431884208D15A49091F096841F0A9
:100D5000F001584A121F116025E056492831884297
:100D600008D15449091F096841F47061514A121FA2
:100D7000116018E04F493C31884208D14D49091FA4
:100D8000096841F470414B4A121F11600BE0494958
:100D90005031884207D14749091F096841F4702141
:100DA000444A121F1160704710B50022026847F6CE
:100DB000F0739A430C6A8B6823430C6923434C6994
:100DC00023438C692343CC6923434C6A23438C6AB5
:100DD00023431A430260CB6843600B6883604B680F
:100DE000C36010BD0021016041608160C16001618C
:100DF00041618161C161016241628162704721B1DB
:100E0000026842F00102026004E002684FF6FE73DD
:100E10001A40026070471AB103680B43036002E096
:100E200003688B4303607047416070470146486820
:100E300080B2704701460020002201F080531BB1B0
:100E40001C4B083B1A6802E0194B083B1A6802EA7F
:100E500001030BB1012000E00020704700F0805139
:100E600019B11449091F086002E0114908394860A6
:100E7000704701460020002201F080531BB10D4B4A
:100E8000083B1A6802E00A4B083B1A6802EA0103B1
:100E90000BB1012000E00020704700F0805119B133
:100EA0000449091F086002E0014908394860704799
:100EB0000800024008040240002044490860091D5F
:100EC0000860091D0860091D086041483F49143148
:100ED0000860704700213D498279002A3AD00A46CD
:100EE000126803689A430B461A600A1D1268036869
:100EF0009A430B1D1A60027911440A6803681A4369
:100F00000A60324A0832126803689A432F4B08334A
:100F10001A601A1D126803689A432C4B0C331A602E
:100F20004279102A0ED11A1F126803681A43274B00
:100F300008331A601A1D126803681A43234B0C33D6
:100F40001A600DE02149427911440A6803681A4386
:100F50000A6005E0027911440A6803689A430A604E
:100F600070470021016001710C21417100218171E4
:100F700070471649103109680143144A1032116054
:100F8000704701460020114A143212680A400AB123
:100F9000012000E0002070470C49143108607047C0
:100FA000014600200022094B1B6803EA0102074B9F
:100FB00014331B680B4013B10AB1012000E000207C
:100FC0007047024914310860704700000004014076
:100FD000FFFF0F0010B50446CC48844208D1012120
:100FE000042000F093FB0021042000F08FFB46E07A
:100FF000C748844208D10121082000F087FB002166
:10100000082000F083FB3AE0C248844208D1012165
:10101000102000F07BFB0021102000F077FB2EE079
:10102000BD48844208D10121202000F06FFB00213F
:10103000202000F06BFB22E0B848844208D1012157
:10104000402000F063FB0021402000F05FFB16E031
:10105000B348844208D10121802000F057FB0021D1
:10106000802000F053FB0AE0AE48844207D1012102
:10107000801500F04BFB0021A01500F047FB10BDD0
:1010800010B50121084600F041FB0021012000F0CD
:101090003DFB10BD2DE9F041024600250026002051
:1010A00000230024002791F803C00CF00F0591F8ED
:1010B00003C00CF0100CBCF1000F03D091F802C07B
:1010C0004CEA050591F800C0BCF1000F31D014685E
:1010D00000202BE04FF0010C0CFA00F3B1F800C037
:1010E0000CEA03069E4220D183004FF00F0C0CFA4D
:1010F00003F7BC4305FA03FC4CEA040491F803C06F
:10110000BCF1280F06D14FF0010C0CFA00FCC2F81C
:1011100014C00AE091F803C0BCF1480F05D14FF0AC
:10112000010C0CFA00FCC2F810C0401C0828D1D3F6
:101130001460B1F800C0BCF1FF0F34DD546800202A
:101140002EE000F1080C4FF0010808FA0CF3B1F89A
:1011500000C00CEA03069E4221D183004FF00F0C21
:101160000CFA03F7BC4305FA03FC4CEA040491F8BB
:1011700003C0BCF1280F05D100F1080C08FA0CF8E7
:10118000C2F8148091F803C0BCF1480F07D100F1F8
:10119000080C4FF0010808FA0CF8C2F81080401C47
:1011A0000828CED35460BDE8F0814FF6FF7101806E
:1011B000022181700421C1707047024600209368AB
:1011C0000B400BB1012000E0002070470146886809
:1011D00080B2704702460020D3680B400BB101205B
:1011E00000E0002070470146C86880B27047016186
:1011F0007047416170470AB1016100E04161704789
:10120000C16070474FF480320A438261816182611C
:1012100082698269704702460020434B18684FF686
:101220008073184040EA021008433F4B1860704733
:101230003E49C8617047F0B50A46002300240021EA
:10124000002500F00046B6F1004F02D1364EF1699C
:1012500001E0354E7168C0F3034583B200F44016D7
:10126000B6F5401F08D121F070612F4E766826F048
:1012700070662D4F7E6012E000F48016B6F5801F78
:1012800006D1032606FA05F4A14341F0706106E099
:10129000460D360103FA06F6B14341F0706122B102
:1012A000460D360103FA06F6314300F00046B6F16A
:1012B000004F02D11C4EF16101E01B4E7160F0BD88
:1012C00030B500228B071C0F0F2303FA04F2164BD4
:1012D00008338C1053F824309343134C08348D108A
:1012E00044F8253023468C1053F824308C07240F03
:1012F00000FA04F423430C4C08348D1044F82530D4
:1013000030BD0A49DC310860704700000008014028
:10131000000C014000100140001401400018014081
:10132000001C01400020014000000140000020425C
:1013300010B50121080700F0F6F900214FF08050A8
:1013400000F0F1F910BD2A49086270472849086188
:10135000704701460020274A106820F0E00008434B
:10136000106070472249A0310860704710B50246EE
:101370000020204B186820F00300104318601E4B1B
:101380001B6843F004031C4C2360012901D130BFCA
:1013900000E020BF184B1B6823F00403164C2360A9
:1013A00010BD1448006840F0040012490860084667
:1013B000006840F0020008600F48006840F0040038
:1013C0000D49086000BF00BF30BF704701460020D4
:1013D000084A52680A400AB1012000E00020704724
:1013E0000449096841EA8001024A1160704700001F
:1013F00000000E420070004010ED00E0DF48006881
:1014000040F00100DD49086008464068DC490840BA
:10141000DA49486008460068DA490840D749086058
:101420000846006820F4802008600846406820F4E0
:10143000FE0048604FF41F0088607047CF4909687C
:1014400021F48031CD4A11601146096821F48021D0
:101450001160B0F5803F03D0B0F5802F0ED106E0CB
:10146000C649096841F48031C44A116007E0C349A4
:10147000096841F4A021C14A116000E000BF00BF2B
:10148000704710B501460022002300204A11012AAE
:1014900002D1BA4C236806E0022A02D1B74C236A73
:1014A00001E0B64C636A01F01F02012494401C4025
:1014B0000CB1012000E0002010BD38B500200090E4
:1014C0000024002500BF3120FFF7DBFF0546009810
:1014D000401C00900098B0F5A06F01D0002DF2D014
:1014E0003120FFF7CEFF08B1012400E000242046A0
:1014F00038BD01460020A14A106820F0F80040EAFB
:10150000C10010607047A049086070470246002083
:101510009A4B586820F47C1042EA01031843974B19
:101520005860704798490866704701460020934A02
:10153000506820F003000843506070478F484068AF
:1015400000F00C007047014600208C4A506820F0E3
:10155000F00008435060704701460020874A5068F9
:1015600020F4E06008435060704701460020834A41
:10157000506820F4605040EAC1005060704729B1C3
:101580007E4A527A02437D4B5A7204E07B4A527A79
:1015900082437A4B5A7270477B49D8310860704752
:1015A00001460020754A506820F4404008435060CE
:1015B00070470021714A20321170704A82F8201061
:1015C000012802D004280AD104E001216B4A20320C
:1015D000117005E00521694A2032117000E000BF5A
:1015E00000BF70476949086070476449096A014350
:1015F000624A11627047654944390860704730B5E6
:1016000000210022002400235C4D6D6805F00C01D0
:1016100021B1042905D0082923D105E05C4D0560DE
:1016200022E05B4D05601FE0544D6D6805F47012BB
:10163000524D6D6805F48034022505EB92421CB9C9
:10164000544D554305600BE04C4D6D6805F4003575
:101650001DB1504D5543056002E04D4D55430560A9
:1016600002E04B4D056000BF00BF444D6D6805F0C2
:10167000F0010909484D6B5C0568DD4045603F4D50
:101680006D6805F4E061090A434D6B5C4568DD4017
:1016900085603A4D6D6805F46051C90A3E4D6B5C3A
:1016A0004568DD40C560354D6D6805F44041890BE6
:1016B0003A4D6B5CC568B5FBF3F5056130BD29B1EA
:1016C0002E4A526902432D4B5A6104E02B4A52695B
:1016D00082432A4B5A61704729B1284A92690243D2
:1016E000264B9A6104E0254A92698243234B9A6112
:1016F000704729B1214AD2690243204BDA6104E0E4
:101700001E4AD26982431D4BDA61704729B11B4AD8
:10171000D2680243194BDA6004E0184AD268824367
:10172000164BDA60704729B1144A12690243134B11
:101730001A6104E0114A12698243104B1A61704722
:1017400012494039086070470F49C86470470B4917
:10175000C87170470948406A40F080700749486284
:10176000704701460020054A92680A400AB10120EC
:1017700000E0002070470149887270470010024065
:101780000000FFF8FFFFF6FE0000424280044242E4
:1017900000127A0000093D00E4000020F40000205F
:1017A00010B50446FE48844208D10121C014FFF759
:1017B000ADFF0021E014FFF7A9FFC4E0B4F1804FB2
:1017C00008D101210846FFF7AEFF00210120FFF7F5
:1017D000AAFFB8E0F348844208D101210220FFF7B4
:1017E000A2FF00210220FFF79EFFACE0EE488442FA
:1017F00008D101210420FFF796FF00210420FFF704
:1018000092FFA0E0E948844208D101210820FFF7B7
:101810008AFF00210820FFF786FF94E0E448844215
:1018200008D101211020FFF77EFF00211020FFF7D3
:101830007AFF88E0DF48844208D101212020FFF7A9
:1018400072FF00212020FFF76EFF7CE0DA4884421F
:1018500008D101214014FFF759FF00216014FFF760
:1018600055FF70E0D548844209D10121C804FFF733
:101870004DFF00214FF40020FFF748FF63E0D04800
:10188000844209D101210805FFF740FF00214FF4F0
:101890008010FFF73BFF56E0CA48844209D101217E
:1018A0004805FFF733FF00214FF40010FFF72EFF2C
:1018B00049E0C548844208D101214020FFF733FFA9
:1018C00000214020FFF72FFF3DE0C048844208D1AF
:1018D00001218020FFF727FF00218020FFF723FF51
:1018E00031E0BB48844208D101218015FFF71BFF7E
:1018F0000021A015FFF717FF25E0B648844209D163
:1019000001210804FFF702FF00214FF48030FFF7A8
:10191000FDFE18E0B048844209D101214804FFF7D8
:10192000F5FE00214FF40030FFF7F0FE0BE0AB486E
:10193000844208D101218804FFF7E8FE00214FF41A
:101940008020FFF7E3FE10BD00220288944B9842EE
:101950000ED0994B98420BD0B0F1804F08D0914BEC
:10196000984205D0904B984202D0904B984204D1B7
:101970004FF68F731A404B881A438D4B984207D00D
:101980008C4B984204D04FF6FF431A40CB881A4341
:1019900002808B8883850B880385814B98420BD00E
:1019A000854B984208D08B4B984205D08A4B984281
:1019B00002D08A4B984201D10B7A0386012383829D
:1019C000704770B5002400220023058C4FF6FE7688
:1019D00035400584028C8388048B4FF68F752C402C
:1019E000B51E2C400D882C43751E2A400D892A43B4
:1019F0004D882A436A4DA8420BD06F4DA84208D0AB
:101A0000744DA84205D0744DA84202D0734DA8422F
:101A100013D14FF6F7752A404D892A434FF6FB75CF
:101A20002A408D882A434FF6FF652B404FF6FF551D
:101A30002B408D892B43CD892B4383800483CD8814
:101A40008586028470BD70B5002400220023058CB9
:101A50004FF6EF7635400584028C8388048B48F678
:101A6000FF752C404FF6FF452C400D884FF6FF7652
:101A700006EA05252C434FF6DF752A400D8906EA54
:101A800005152A434D8806EA05152A43444DA84208
:101A900002D0494DA8421DD14FF67F752A404D898D
:101AA0004FF6FF7606EA05152A434FF6BF752A4022
:101AB0008D8806EA05152A434FF6FF352B404FF275
:101AC000FF752B408D8906EA85052B43CD8906EAF3
:101AD00085052B4383800483CD880587028470BDF0
:101AE00070B5002400220023058C4FF6FF663540B8
:101AF0000584028C8388848B4FF68F752C404FF6BB
:101B0000FC752C400D882C434FF6FF552A400D895B
:101B10004FF6FF7606EA05252A434D8806EA052595
:101B20002A431F4DA84202D0234DA8421DD14FF297
:101B3000FF752A404D894FF6FF7606EA05252A43B0
:101B40004FF6FF352A408D8806EA05252A434EF6D2
:101B5000FF752B404DF6FF752B408D8906EA051564
:101B60002B43CD8906EA05152B4383808483CD88DA
:101B70008587028470BD70B5002200230024058C87
:101B80004EF6FF7635400584038C8488828B48F6B8
:101B9000FF752A404FF6FF452A400D8820E00000DF
:101BA000002C01400004004000080040000C0040F0
:101BB000001000400014004000340140004C01407F
:101BC000005001400054014000180040001C00403B
:101BD0000020004000400140004401400048014016
:101BE0004FF6FF7606EA05252A434DF6FF752B4092
:101BF0000D8906EA05352B434D8806EA05352B434A
:101C0000FA4DA84202D0FA4DA84208D14BF6FF7512
:101C10002C408D894FF6FF7606EA85152C4384808B
:101C20008283CD88A0F84050038470BD828B4FF230
:101C3000FF331A408283828B4FF6FF7303EA01233E
:101C40001A4382837047F0B50C46154600220021E6
:101C50000026078C4EF6FF7C07EA0C070784828B70
:101C6000018C4FF6FF7707EA043640F6FF473A400B
:101C70004FF6FF7707EA05273A434FF6FF7707EA63
:101C800003373A43D94FB8420ED0D94FB8420BD0A0
:101C9000B0F1804F08D0D74FB84205D0D64FB842E8
:101CA00002D0D64FB84206D14DF6FF77394046F400
:101CB0008057394305E047F6FF57394044F48057D1
:101CC000394382830184F0BD828B4FF6F3731A404F
:101CD0008283828B0A4382837047F0B50C46154697
:101CE000002200210026078C4FF6FF6C07EA0C0744
:101CF0000784828B018C4FF6FF7707EA04264FF6A4
:101D00000C773A404FF6FF7707EA03172F433A4321
:101D1000B64FB8420ED0B64FB8420BD0B0F1804F9C
:101D200008D0B44FB84205D0B34FB84202D0B34F39
:101D3000B84206D14FF6FF57394046F48077394311
:101D400005E04FF2FF57394044F4807739438283EE
:101D50000184F0BD028B4FF2FF331A400283028BE5
:101D60004FF6FF7303EA01231A4302837047F0B56D
:101D70000C461546002200210026078C4FF6EF7C0A
:101D800007EA0C070784028B018C4FF6FF7707EAFE
:101D9000041640F6FF473A404FF6FF7707EA03374D
:101DA0003A434FF6FF7707EA05273A438F4FB84289
:101DB0000ED08F4FB8420BD0B0F1804F08D08D4F6E
:101DC000B84205D08C4FB84202D08C4FB84206D1F1
:101DD0004FF6DF77394046F01007394305E04FF6FC
:101DE0005F77394044F01007394302830184F0BD26
:101DF000028B4FF6F3731A400283028B0A4302836D
:101E00007047F0B50C46154600220021068C4FF6AF
:101E1000FE773E400684028B018C4FF60C763240F2
:101E20007E1C06EA03162E433243704EB0420ED09B
:101E30006F4EB0420BD0B0F1804F08D06D4EB04223
:101E400005D06D4EB04202D06C4EB04206D14FF676
:101E5000FD76314044F00106314305E04FF6F5765A
:101E6000314044F00106314302830184F0BD70B576
:101E700005460C465D4885420ED05D4885420BD034
:101E8000B5F1804F08D05B48854205D05A4885425D
:101E900002D05A48854200D100E000BF208850B9E6
:101EA0002389A28861882846FFF7ABFFE18828468E
:101EB000FFF79EFF25E0208804280AD12389A28805
:101EC00061882846FFF753FFE1882846FFF742FF65
:101ED00017E0208808280AD12389A288618828462B
:101EE000FFF7FBFEE1882846FFF7EEFE09E02389B5
:101EF000A28861882846FFF7A6FEE1882846FFF7FA
:101F000095FE70BD2DE9F04105460C4600260127DF
:101F1000608808B9022600E00026A088012801D1C7
:101F2000022700E001272088A0B92389A2886188C0
:101F30002846FFF766FFE1882846FFF759FF238907
:101F40003A4631462846FFF712FFE1882846FFF758
:101F500001FF13E02389A28861882846FFF707FF65
:101F6000E1882846FFF7F6FE23893A46314628469F
:101F7000FFF747FFE1882846FFF73AFFBDE8F08109
:101F80000A884B881A438B881A43CB881A430B89DB
:101F90001A434B891A438B891A43A0F8442070478F
:101FA0004FF6FF71818000210180C1804180017264
:101FB00070470021018041808180C1800181418181
:101FC0008181C18170470021018041800121818090
:101FD0000021C18001817047002101804180818002
:101FE000C18001814181818170470000002C014046
:101FF000003401400004004000080040000C004094
:1020000021B1028842F00102028004E002884FF60A
:10201000FE731A400280704731B1B0F8442042F498
:102020000042A0F8442005E0B0F84420C2F30E02BC
:10203000A0F8442070471AB183890B43838102E0E2
:1020400083898B43838170478182704741EA020311
:10205000A0F8483070471AB183890B43838102E0AE
:1020600083898B438381704701894FF6F872114051
:10207000018170470A46002101894FF68F7319408C
:1020800011430181704730B504460D46294620466C
:10209000FFF7F0FF208940F00700208130BD2DE9D7
:1020A000F04104460D4616461F46602D06D13B46BC
:1020B000012231462046FFF75AFE05E03B46012249
:1020C00031462046FFF79DFE29462046FFF7D2FF06
:1020D000208940F007002081BDE8F08130B50C4632
:1020E00000210189C9B24FF6FF7505EA03251543A2
:1020F00025432943018130BD2DE9F04105460E46B7
:1021000017469846002443463A4631462846FFF78C
:10211000E5FF2C894FF6F870044044F007044FF6B1
:102120008F70044044F070042C81BDE8F081F0B55C
:1021300004460D4616461F463B4632462946204673
:10214000FFF7CCFF208940F480402081F0BD01855D
:10215000828270470A46002101884FF68F7319402A
:10216000114301807047F0B50C4615461E4600210C
:10217000002200230189028B038C4FF6F877394047
:1021800021434FF6FC473A4040F201173A434FF6DD
:10219000DD773B404FF6FF7707EA06172F433B43B7
:1021A000018102830384F0BD0A460021018B4FF6B2
:1021B0008F7319401143018370470A460021018B38
:1021C00048F6FF7319404FF6FF7303EA02231943E1
:1021D000018370470A460021818B4FF68F731940A7
:1021E0001143818370470A460021818B48F6FF73B3
:1021F00019404FF6FF7303EA0223194381837047A6
:1022000021B1028842F08002028004E002884FF689
:102210007F731A400280704721B1828842F0040225
:10222000828004E082884FF6FB731A4082807047F8
:1022300021B1828842F00802828004E082884FF651
:10224000F7731A408280704721B1828842F0010200
:10225000828004E082884FF6FE731A4082807047C5
:102260000A460021018B4FF6F77319401143018391
:1022700070470A460021018B4FF2FF7319404FF659
:10228000FF7303EA02231943018370470A460021C2
:10229000818B4FF6F77319401143818370470A46CB
:1022A0000021818B4FF2FF7319404FF6FF7303EA51
:1022B00002231943818370470A460021018B4FF6A0
:1022C000FB7319401143018370470A460021018BBB
:1022D0004FF6FF3319404FF6FF7303EA0223194309
:1022E000018370470A460021818B4FF6FB7319402A
:1022F0001143818370470A460021818B4FF6FF33DB
:1023000019404FF6FF7303EA022319438183704794
:102310000A460021018B4FF67F7319401143018358
:1023200070470A460021018BC1F30E014FF6FF737F
:1023300003EA02231943018370470A460021818B77
:102340004FF67F7319401143818370470A4600217D
:10235000818BC1F30E014FF6FF7303EA0223194389
:10236000818370470A460021018C4FF6FD731940A6
:102370001143018470470A460021018C4FF6F77320
:1023800019401143018470470A460021018C4FF621
:10239000DF7319404FF6FF7303EA021319430184F8
:1023A00070470A460021018C4FF67F7319404FF6A3
:1023B000FF7303EA02131943018470470A460021A0
:1023C000018C4FF6FF5319404FF6FF7303EA0223C7
:1023D0001943018470470A460021018C4FF2FF73B4
:1023E00019404FF6FF7303EA022319430184704733
:1023F0000A460021018C4DF6FF7319404FF6FF731A
:1024000003EA023319430184704730B500230124E5
:102410008C40A3B2048C9C430484048C02FA01F522
:10242000ADB22C43048430BD30B5002304248C406D
:10243000A3B2048C9C430484048C02FA01F5ADB26F
:102440002C43048430BD70B5034600200024184698
:10245000183001258D40ACB21D8CA5431D8409B1F7
:10246000082909D100EB6100056825F070050560B9
:102470000568154305600EE00D1FC5F34E052844A1
:10248000056825F4E045056005684FF6FF7606EA25
:1024900002263543056070BD21B1028842F0020278
:1024A000028004E002884FF6FD731A4002807047F4
:1024B00021B1028842F00402028004E002884FF653
:1024C000FB731A400280704721B1828842F080027B
:1024D000828004E082884FF67F731A4082807047C2
:1024E00002884FF6F7731A40028002880A4302807E
:1024F000704782884FF68F731A40828082880A4321
:102500008280704702894FF6F8731A40028102896F
:102510000A430281704702894FF67F731A40028195
:1025200002890A4302817047818470478185704720
:10253000818670470187704781877047A0F84010F7
:10254000704702884FF6FF431A40028002880A4310
:10255000028070470146888E70470146088F704799
:102560000146888F70470146B1F840007047014628
:10257000888C70470146088D704702460020138AF8
:102580000B400BB1012000E000207047CA430282DB
:10259000704730B50246002000230024158A05EA62
:1025A0000103958905EA010413B10CB1012000E093
:1025B000002030BDCA4302827047000010B50446B7
:1025C000FB48844209D101218803FFF79FF80021CD
:1025D0004FF48040FFF79AF832E0F648844209D180
:1025E00001214804FFF79FF800214FF40030FFF766
:1025F0009AF825E0F048844209D101218804FFF7C8
:1026000092F800214FF48020FFF78DF818E0EB4896
:10261000844209D10121C804FFF785F800214FF455
:102620000020FFF780F80BE0E548844208D1012143
:102630000805FFF778F800214FF48010FFF773F8D2
:1026400010BD2DE9F04786B005460E460024A2468F
:1026500000BFA1460027B08900B100BF2F462C8AD9
:102660004CF6FF700440F08804432C82AC894EF68F
:10267000F3100440B088318908437189084304434A
:10268000AC81AC8A4FF6FF400440B0890443AC8271
:1026900001A8FEF7B4FFC648874202D1DDF810A0BA
:1026A00001E0DDF80CA0A88900F4004040B10AEB7D
:1026B000CA0000EB0A1031684900B0FBF1F807E0EE
:1026C0000AEBCA0000EB0A1031688900B0FBF1F890
:1026D0006420B8FBF0F004012009642101FB10899B
:1026E000A88900F4004040B1322000EBC900B0FBE3
:1026F000F1F000F00700044308E0322000EB09107D
:102700006421B0FBF1F000F00F0004432C8106B00F
:10271000BDE8F0874FF41651016000218180C1802F
:1027200001810C21418100218181704710B5024651
:102730000020108A4FF2FF0318400B884C88234377
:102740008C882343CC8823431843108210BD00217A
:10275000018041808180C180704721B1828942F42B
:102760000052828104E082894DF6FF731A40828113
:102770007047F0B50346002400260025002040F6EF
:102780006A17B94200D100BF1846C1F3421401F0E4
:102790001F06012707FA06F5012C01D10C3004E0D1
:1027A000022C01D1103000E014301AB107682F4319
:1027B000076002E00768AF430760F0BD1AB1838A83
:1027C0000B43838202E0838A8B4383827047028AB1
:1027D0004FF6F0731A400282028A0A43028270475F
:1027E00082894FF2FF731A40828182890A43828173
:1027F000704721B1828942F00202828104E082891D
:102800004FF6FD731A4082817047028A4FF6DF73DC
:102810001A400282028A0A430282704721B1028A68
:1028200042F48042028204E0028A4BF6FF731A40AF
:1028300002827047C1F3080282807047014688888F
:10284000C0F308007047818941F001018181704720
:10285000028BD2B20283028B42EA012202837047CA
:10286000028B02F47F420283028B0A430283704789
:1028700021B1828A42F02002828204E0828A4FF6ED
:10288000DF731A408282704721B1828A42F01002BF
:10289000828204E0828A4FF6EF731A408282704788
:1028A00021B1828A42F00802828204E0828A4FF6D5
:1028B000F7731A408282704721B1828942F4004244
:1028C000828103E08289C2F30E028281704721B1C6
:1028D000828A42F40062828204E0828A4FF2FF73AD
:1028E0001A4082827047828A4FF6FB731A408282B6
:1028F000828A0A438282704721B1828A42F00202B0
:10290000828204E0828A4FF6FD731A408282704709
:1029100002460020B1F5007F00D100BF13880B40B4
:102920000BB1012000E00020704701F40072B2F505
:10293000007F00D100BFCA430280704770B50246D5
:10294000002400230025002040F66A16B14200D181
:1029500000BFC1F3421501F01F03012606FA03F37D
:10296000012D02D19689334006E0022D02D1168A4C
:10297000334001E0968A33400C12012606FA04F433
:102980001688344013B10CB1012000E0002070BD66
:1029900010B50022002340F66A14A14200D100BF06
:1029A0000A1201249440A3B2DC43048010BD00004D
:1029B000003801400044004000480040004C004006
:1029C0000050004010B56FF00400FDF7A2FE2E4845
:1029D00000682E49B0FBF1F02D49087008460078D8
:1029E00000EB4001C1EBC0104FF6FF7101EAC000DF
:1029F0002849088010BD0146254A12784A434FF005
:102A0000E0235A6100229A611A46126942F00102DB
:102A10001A6100BF4FF0E022106900F001021AB104
:102A200000F48032002AF5D04FF0E022126922F043
:102A300001024FF0E0231A6100229A6170470146BB
:102A4000144A12884A434FF0E0235A6100229A61E7
:102A50001A46126942F001021A6100BF4FF0E022EB
:102A6000106900F001021AB100F48032002AF5D09A
:102A70004FF0E022126922F001024FF0E0231A61C8
:102A800000229A6170470000D000002000127A00F6
:102A9000F8000020FA000020014600BF704700BF88
:102AA000FA4A128802F04002002AF9D0C2B2F74B6B
:102AB0001B1D1A807047F649088000BFF449091FA2
:102AC000098801F040010029F8D0704710B586B0A0
:102AD000044601210420FEF7FFFD01218803FEF7D3
:102AE000FBFD4FF40070ADF8140003208DF81600C4
:102AF00018208DF8170005A9E648FEF7CBFA4FF429
:102B00008060ADF8140048208DF8170005A9E14851
:102B1000FEF7C0FA25208DF8000000208DF8010096
:102B200001208DF802008DF803006846FDF7A7FD2F
:102B300001940020ADF80800ADF80A00ADF80C00D3
:102B4000ADF810000420ADF80E0001A9D048001F18
:102B5000FFF777FD012240F22551CD48001FFFF716
:102B600008FE0121CA48001FFFF7F7FD06B010BD9F
:102B700001460120002202E04000531CDAB28A42E2
:102B8000FADB704710B540F22551C148001FFFF72E
:102B9000D5FE00287ED0BE48001FFFF74FFEC1B211
:102BA000BD4802880088401CBB4B1880BB4881543C
:102BB00018460088802802D1002019460880B648AF
:102BC0000088801EB549085C0D2810D1B2480088E5
:102BD000401E085C0A280AD1B148007838B90120A3
:102BE000AF4908700020AC490880AE490870AC4875
:102BF0000078002870D00020AB490880AB490880DD
:102C0000A6480078AA490870A44840784870A348AC
:102C10008078A8490870A148C0784870A4484078D6
:102C2000A5490870002413E0A348007800F00100D3
:102C300038B12046FFF79CFF9B49098808449A4910
:102C400008809D48007840109B490870601CC4B201
:102C5000082CE9DB9648007897490870002415E0B5
:102C60009548007800F0010048B104F10801C8B2AD
:102C7000FFF77EFF8C49098808448B4908808E48FD
:102C8000007840108C490870601CC4B2082CE7DB47
:102C9000884800E051E0407887490870002413E03C
:102CA0008548007800F0010038B12046FFF760FF4A
:102CB0007E49098808447D4908807F480078401093
:102CC0007D490870601CC4B2082CE9DB79480078A3
:102CD00079490870002416E029E07748007800F070
:102CE000010048B104F10801C8B2FFF741FF6F4984
:102CF000098808446D4908806F48007840106E4983
:102D00000870601CC4B2082CE7DB68480088C0F17A
:102D1000C8006A49086064480088A0F59670684950
:102D2000086001205F49087000205D49087040F28A
:102D300025515748001FFFF72BFE10BD6148007852
:102D400006287DD2DFE800F07C03F0EEEDEC53487E
:102D500000792C2836D15148C07830385A4908704B
:102D60004E488079292805D14C4840793038574958
:102D70000870D4E04948C07929280CD147488079A7
:102D8000303846494979303901EB810100EB410087
:102D90004E490870C3E04148007A2928E9D13F48EC
:102DA00040793038642148433C498979303901EB16
:102DB000810100EB41013948C0793038084443496A
:102DC0000870ACE0354840792C283FD13348007971
:102DD00030383249C978303901EB810100EB4100CC
:102DE000394908702D48C079292805D12B488079A8
:102DF00030383649087092E02848007A29280CD1EA
:102E00002648C079303825498979303901EB81016C
:102E100000EB41002D49087081E02048407A2928C4
:102E20007DD11E4880793038642148431B49C979D7
:102E3000303901EB810100EB41011848007A00E0D4
:102E400097E3303808442149087068E013488079D6
:102E50002C2864D11148C0783038642148430F4988
:102E60000979303901EB810100EB41010B484079D0
:102E700030380844144908700848007A292827D1B6
:102E80000648C07930381149087048E000440040D5
:102E9000043801400008014006010020140300200E
:102EA00008010020280100201C0100201E01002034
:102EB0001701002019010020290100202401002011
:102EC00020010020090100202A0100202B01002000
:102ED000F848407A29280CD1F648007A3038F5496C
:102EE000C979303901EB810100EB4100F2490870EA
:102EF00015E0F048807A292811D1EE48C0793038A1
:102F000064214843EB49097A303901EB810100EB38
:102F10004101E848407A30380844E749087029E31D
:102F200062E28BE1C5E0FFE7E24800792C2836D168
:102F3000E048C0783038E1490870DE4880792928B7
:102F400005D1DC4840793038DD490870B0E0D94817
:102F5000C07929280CD1D74880793038D5494979AA
:102F6000303901EB810100EB4100D54908709FE049
:102F7000D048007A2928E9D1CE48407930386421F8
:102F80004843CC498979303901EB810100EB41019B
:102F9000C848C07930380844C949087088E0C54835
:102FA00040792C283DD1C34800793038C149C978CF
:102FB000303901EB810100EB4100C0490870BD4888
:102FC000C079292805D1BB4880793038BC490870C0
:102FD0006EE0B848007A29280CD1B648C07930385C
:102FE000B4498979303901EB810100EB4100B449E2
:102FF00008705DE0AF48407A292859D1AD48807902
:10300000303864214843AB49C979303901EB81013B
:1030100000EB4101A748007A30380844A8490870FD
:1030200046E0A44880792C2842D1A248C0783038A4
:10303000642148439F490979303901EB810100EB54
:1030400041019C484079303808449C4908709948AF
:10305000007A292805D19748C079303898490870F6
:1030600026E09448407A29280CD19248007A3038DA
:103070009049C979303901EB810100EB4100904959
:10308000087015E08B48807A292811D18948C079C9
:103090003038642148438749097A303901EB81018E
:1030A00000EB41018348407A303808448449087075
:1030B00060E2804800792C2836D17E48C0783038CC
:1030C000804908707B488079292805D17948407962
:1030D00030387D490870B0E07648C07929280CD195
:1030E00074488079303873494979303901EB81016E
:1030F00000EB4100744908709FE06E48007A29286F
:1031000011D16C4840793038642148436949897944
:10311000303901EB810100EB41016648C07930385C
:1031200008446949087088E0624840792C283DD1FC
:103130006048007930385F49C978303901EB810146
:1031400000EB41005F4908705A48C079292805D131
:103150005848807930385C4908706EE05548007AEC
:1031600029280CD15348C0793038524989793039EF
:1031700001EB810100EB4100534908705DE04D48CF
:10318000407A292859D14B48807930386421484306
:103190004849C979303901EB810100EB41014548CB
:1031A000007A303808444849087046E04148807940
:1031B0002C2842D13F48C0783038642148433D49EB
:1031C0000979303901EB810100EB4101394840793F
:1031D000303808443B4908703648007A292805D120
:1031E0003448C07930383849087026E03148407A90
:1031F00029280CD12F48007A30382E49C979303926
:1032000001EB810100EB41002F49087015E02948CE
:10321000807A292811D12748C07930386421484361
:103220002449097A303901EB810100EB4101214841
:10323000407A30380844244908709BE11D480079E1
:103240002C2847D11B48C0783038204908701948CD
:103250008079292805D11748407930381C490870F1
:10326000C1E01448C07929280CD11248807930383F
:1032700010494979303901EB810100EB41001449D3
:103280000870B0E00B48007A292811D1094840792C
:1032900030386421484307498979303901EB81018D
:1032A00000EB41010348C0793038084408490870F0
:1032B00099E00000140300202B0100202C010020C5
:1032C0002D0100202E0100202F01002030010020C0
:1032D00031010020E24840792C283DD1E0480079B6
:1032E0003038DF49C978303901EB810100EB41000A
:1032F000DC490870DA48C079292805D1D848807996
:103300003038D94908706EE0D548007A29280CD1A8
:10331000D348C0793038D2498979303901EB8101FD
:1033200000EB4100D04908705DE0CD48407A292883
:1033300059D1CB488079303864214843C849C9798C
:10334000303901EB810100EB4101C548007A30388A
:103350000844C549087046E0C14880792C2842D10C
:10336000BF48C078303864214843BD4909793039B5
:1033700001EB810100EB4101B94840793038084444
:10338000B8490870B648007A292805D1B448C079F0
:103390003038B549087026E0B148407A29280CD168
:1033A000AF48007A3038AE49C979303901EB810134
:1033B00000EB4100AC49087015E0A948807A292843
:1033C00011D1A748C079303864214843A449097A0B
:1033D000303901EB810100EB4101A148407A3038DE
:1033E0000844A1490870C5E09D4800792C2836D1D1
:1033F0009B48C07830389D490870994880792928C1
:1034000005D197484079303899490870B0E0944820
:10341000C07929280CD1924880793038904949796F
:10342000303901EB810100EB4100914908709FE0C8
:103430008B48007A292811D1894840793038642195
:10344000484387498979303901EB810100EB41011B
:103450008348C079303808448549087088E080483E
:1034600040792C283DD17E48007930387C49C97894
:10347000303901EB810100EB41007C49087078484C
:10348000C079292805D17648807930387849087084
:103490006EE07348007A29280CD17148C079303821
:1034A0006F498979303901EB810100EB41007049A6
:1034B00008705DE06A48407A292859D168488079C7
:1034C0003038642148436649C979303901EB8101BC
:1034D00000EB41016248007A3038084464490870C2
:1034E00046E05F4880792C2842D15D48C07830386A
:1034F000642148435A490979303901EB810100EBD5
:1035000041015748407930380844584908705448B8
:10351000007A292805D15248C079303854490870BA
:1035200026E04F48407A29280CD14D48007A30389F
:103530004B49C979303901EB810100EB41004C491D
:10354000087015E04648807A292811D14448C0798E
:103550003038642148434249097A303901EB81010E
:1035600000EB41013E48407A303808444049087039
:1035700000E000BF00BF704700213E4A11703E4985
:10358000088000BF3C49091F098801F0400100295B
:10359000F8D0704710B586B0044601210420FEF72C
:1035A0009BF801214804FEF7A4F80420ADF81400AC
:1035B00003208DF8160018208DF8170005A92F4854
:1035C000FDF768FD0820ADF8140048208DF81700BD
:1035D00005A92A48FDF75EFD26208DF80000002091
:1035E0008DF8010001208DF802008DF80300684677
:1035F000FDF745F801940020ADF80800ADF80A0089
:10360000ADF80C00ADF810000C20ADF80E0001A9CB
:103610001948001FFFF715F8012240F225511648FE
:10362000001FFFF7A6F801211348001FFFF795F8C8
:1036300006B010BD10B540F225510F48001FFFF72E
:103640007DF958B10C48001FFFF7F8F809490870D8
:1036500040F225510848001FFFF79AF910BD0000FD
:10366000140300203001002031010020320100202D
:1036700033010020340100200444004000080140D0
:10368000A34A0A400243A34B1A607047014607232E
:1036900023EA010212029F4B1B1D18684FF6FF031D
:1036A00018409D4B184310439A4B1B1D18607047E0
:1036B0002DE9F0410746884614461D462846FFF787
:1036C000E5FFC5F1040007FA00F60F20284100EAE3
:1036D0000800064306F00F06E21704EBD26252110F
:1036E000920002F1E022D2F800212146E31704EB18
:1036F000D3635B11A4EB431C012303FA0CF31A43BD
:103700002046E31704EBD3635B119B0003F1E02336
:10371000C3F800218148005D40EA06107F49085542
:10372000BDE8F08170B504460B46CE1701EB9676E6
:10373000C6F38700CE1701EB9676B610A1EB86068E
:10374000B606350E764B9B6943F00103744EB361A8
:103750004FEAB63353F820300F26AE40B343714ED4
:1037600046F82030334653F8203004FA05F61E435D
:103770006C4B43F820606C4B1B6801268E40334332
:10378000694E336002F0010343B1674B0C331B6891
:1037900001268E403343644E0C36336002F0020340
:1037A00043B1614B08331E6801238B401E435E4BBF
:1037B00008331E6070BD00B5002059490861C8601B
:1037C0001420486100208861C8610846006840F004
:1037D0000100086008464068544908405049486064
:1037E00008460068524908404D490860084600688C
:1037F00020F4802008600846406820F4FE004860FD
:103800000020886000214FF00060FFF739FF00BD05
:1038100010B540480830006840F004003D490831C8
:1038200008603F48C06940F080503D49C861414848
:10383000406840F480703F4948600846006840F0A6
:10384000040008600846006840F002000860FCF7C9
:1038500033FD10BD3048001D2E49091D086070471A
:10386000014649062E4A926942F001022C4B9A61A8
:103870002C4A083A526822F0E0622A4B083B5A6010
:103880001A4652680A435A60704730B5044600250C
:10389000FFF791FF2248006840F48030204908601B
:1038A00000BF1F480068400C0028FAD04FF4806029
:1038B0001B494860A01EC4B20846406840EA8440E4
:1038C00048600846406840F4803048601A48006804
:1038D00040F03200184908601148006840F08070DC
:1038E0000F49086000BF0E480068400E0028FAD05B
:1038F0000B48406840F002000949486005E008486C
:103900004068C0F3870505F00305022DF7D130BDEF
:1039100080FFFF1F08ED00E00000FA0500E400E072
:103920000010024008000140000401400000FFF8C0
:10393000FFFFF6FE007000400020024008B50121A4
:103940000820FDF7C9FE4FF40050ADF8000010202C
:103950008DF8030003208DF8020069462148FDF729
:1039600099FB08BD18B900211F4A11600FE01F49DB
:103970000968491C1D4A1160814208D11A49096829
:10398000C9431B4AC2F8B4110021184A116070479C
:1039900008B501211420FDF79FFE0820ADF80000B6
:1039A00048208DF8030003208DF802006946114875
:1039B000FDF770FB1020ADF8000069460E48FDF7DA
:1039C00069FB0220ADF8000010208DF803000320F1
:1039D0008DF8020069460748FDF75CFB00200749A7
:1039E000086008BD000C0140B4812142380100206C
:1039F0000080214200100140000801408401224261
:103A000008B501210C20FDF767FE4FF4A040ADF88A
:103A1000000048208DF8030069468748FDF73AFB0F
:103A20004FF41060ADF8000048208DF8030069469F
:103A30008248FDF72FFB08BD01468148006828B980
:103A400080480088401C7F4A108002E000207D4AA8
:103A500010807B48006828B97B48007810B90120A5
:103A6000794A107079480078B0B977480078012811
:103A700007D177480078401C754A10700120734ABE
:103A8000107073480078022806D10020704A107028
:103A9000704A10800220704769480068012804D1EC
:103AA0000020694A1070694A10706948007801283E
:103AB0001CD168480088401C664A10801046008867
:103AC00088420ADD5F480088884206DA0020604AA2
:103AD0001070604A10800120DDE75A480088884253
:103AE00004DD00205A4A10705A4A10800020D2E7A4
:103AF0005948007838B15248006820B9002056492A
:103B00000870012070474E480068012801D15249D1
:103B100008700020F6E75148008840B9484800681E
:103B200028B94F480088401C4D49088002E0002019
:103B30004B4908804A480088C82807DD01204749CA
:103B400008800020464908800120704743480088CB
:103B5000012802D10020414908800020F5E770B516
:103B60004FF4827505F05DFB3E49098808B20028D4
:103B700001DB014600E041420E4634463A490968FD
:103B8000701A002801DB014600E0414229B937489C
:103B90000068401C3549086002E000203349086095
:103BA000AC4205DC002032490870324908702AE036
:103BB000A54209DA6800A04206DB02202C49087001
:103BC00001202C4908701EE06800A0420ADA05EBCB
:103BD0004500A04206DB0320254908700120254945
:103BE000087010E005EB4500A04209DAA800A042E9
:103BF00006DB04201E49087001201E49087002E0FF
:103C00000020184908800E48006820B11748006855
:103C1000B0F5167F02DD01201749087016480078BC
:103C2000012804D100F094F80020144908700E48CF
:103C300006601248007870BD000C01400008014089
:103C400038812142420100203C0100203D0100203A
:103C50003E010020400100204401002048010020D6
:103C600046010020240C00404C010020500100209F
:103C70006700002003000020680000204A010020A7
:103C800010B50A461AB10123FE4C236002E000235E
:103C9000FC4C2360002116E00023FA4C34342360EE
:103CA00000F080031BB10123241D236003E00023E7
:103CB000F44C383423600123F24C3434236043063F
:103CC000180E4B1CD9B20829E6DB0123ED4C23600A
:103CD00010BD30B500241CE004F1B001C8B20021D1
:103CE000FFF7CEFF00210846FFF7CAFF0021102092
:103CF000FFF7C6FF002508E0E34901EBC501085DB9
:103D00000121FFF7BDFF681CC5B2802DF4DB601CEC
:103D1000C4B2082CE0DB30BD00B500218D20FFF7D8
:103D2000AFFF00211420FFF7ABFF0021AF20FFF70A
:103D3000A7FF00BD00B500218D20FFF7A1FF0021E6
:103D40001020FFF79DFF0021AE20FFF799FF00BD77
:103D500030B500240CE0002506E00020CA4901EB44
:103D6000C5010855681CC5B2802DF6DB601CC4B2C5
:103D7000082CF0DBFFF7ADFF30BDF0B51446002690
:103D80007F2801DC3F2900DDF0BD0B46CF1701EB9A
:103D90005777FF10C7F10707FAB2CF1701EB577734
:103DA000FF10A1EBC707FDB2C5F107070123BB4018
:103DB000DEB24CB1B44B03EBC0039B5C3343B24F58
:103DC00007EBC007BB5408E0AF4B03EBC0039B5CA1
:103DD000B343AD4F07EBC007BB5400BFD4E72DE999
:103DE000F04F80460C4615461E46A346A5F120001E
:103DF000C5B200273EE00C2E07D105EB4500A349D4
:103E000001EB800010F8079004E0A14800EB0510DA
:103E100010F807904FF0000A26E009F0800028B162
:103E200021464046099AFFF7A8FF09E0099808B91A
:103E3000012000E00020024621464046FFF79DFF9A
:103E40004FEA49604FEA1069601CC4B2A4EB0B0052
:103E5000B04205D15C4608F1010000F0FF0806E021
:103E60000AF1010000F0FF0ABAF1080FD5DB00BF2C
:103E7000781CC7B2B742BEDBBDE8F08F10B5024672
:103E8000012000E050430B1EA1F10104E1B2F9D181
:103E900010BD2DE9FF4F81B0074691461E460E9D8D
:103EA0004FF0000A002439E0301B401EC1B20A2046
:103EB000FFF7E4FFB9FBF0F00A21B0FBF1F201FBE0
:103EC0001208BAF1000F16D1701EA04213DDB8F12E
:103ED000000F0ED10120AB4605EBDB71491001FB51
:103EE00004710090C8B22B4620220299FFF777FF99
:103EF00012E04FF0010A0120AB4605EBDB714910DF
:103F000001FB04710090C8B208F13001CAB22B461F
:103F10000299FFF764FF00BF601CC4B2B442C3DB68
:103F200005B0BDE8F08F78B505460E46144618E09A
:103F30007A2D03DD002506F11000C6B23A2E04DD0D
:103F4000002005460646FFF703FF01200090227877
:103F50000C2331462846FFF742FF05F10800C5B2A1
:103F6000641C20780028E3D178BD08B50121102019
:103F7000FDF7B2FB01210846FDF7AEFB4EF2010052
:103F8000ADF8000010208DF8030002208DF802002B
:103F900069464048FDF77EF80120FDF7D4F900207E
:103FA000FDF707FB0020FCF706FE0020FDF7CBF92C
:103FB000002034493C3108606420FEF740FD0120B8
:103FC0003549C1F8BC010021AE20FFF759FE0021A0
:103FD000D520FFF755FE00215020FFF751FE0021AC
:103FE000A820FFF74DFE00213F20FFF749FE0021EA
:103FF000D320FFF745FE00210846FFF741FE0021D0
:104000004020FFF73DFE00218D20FFF739FE002103
:104010001420FFF735FE00212020FFF731FE00219C
:104020000220FFF72DFE0021A120FFF729FE00212D
:10403000C020FFF725FE0021DA20FFF721FE002136
:104040001220FFF71DFE00218120FFF719FE00213D
:10405000EF20FFF715FE0021D920FFF711FE002108
:10406000F120FFF70DFE0021DB20FFF709FE002104
:104070003020FFF705FE0021A420FFF701FE0021FC
:10408000A6200BE08001224294030020D2C9000840
:1040900046CE00080010014000002242FFF7F0FD6C
:1040A0000021AF20FFF7ECFDFFF752FE08BD000036
:1040B000002000E0401C0A28FCDB704700B587B0F8
:1040C00001214FF40170FDF707FB4FF40040FDF7AD
:1040D00067FA2020ADF8040000208DF8070001A940
:1040E0003748FCF7D7FF3748FCF732FB0020029037
:1040F0008DF80C008DF80D004FF460200490002026
:10410000059001208DF8180002A92E48FCF747FB06
:1041100001212C48FCF76FFB2A48FCF78EFB00BFFF
:104120002848FCF78FFB0028FAD12648FCF794FBBF
:1041300000BF2448FCF795FB0028FAD107B000BD6A
:104140007047704710B504460723012221461D48D9
:10415000FCF7BDFB01211B48FCF78DFB00BF0221D2
:104160001848FCF7F9FC0028F9D01648FCF716FCB3
:1041700010BD2DE9F04F85B00520FFF7E3FF01905A
:1041800007F0AEFC4FF066320F4BCDE9020107F0AD
:10419000F7FC804600220D4B07F0F2FC0646002299
:1041A0000B4B07F0EDFC044600220A4B07F0BEFA69
:1041B000824607F04FFC0490049805B0BDE8F08FEC
:1041C000000801400024014066660A4000002640C5
:1041D000000059400000B04008B501211820FDF74B
:1041E0007BFA0320ADF8000010208DF803000320B7
:1041F0008DF8020069463948FCF74CFF3020ADF8D5
:10420000000010208DF8030003208DF8020069469D
:104210003348FCF73FFF08BD30B589B005460C4672
:10422000FFF7DAFF01214803FDF756FA01211020BC
:10423000FDF752FA4FF47070ADF8200018208DF899
:10424000230003208DF8220008A92548FCF722FF4F
:10425000ADF81850ADF814400020ADF81A00ADF8D4
:10426000160005A91F48FDF76FFB6020ADF804009C
:104270000120ADF806000020ADF80A00ADF80C00F2
:1042800001A91848FDF79DFB01A91648FDF7DBFBC6
:1042900001A91448FDF724FC01A91248FDF76BFCA5
:1042A00001211048FDF7B8FE08210E48FDF7D8FFA0
:1042B00008210C48FDF7DDFF08210A48FDF7E6FF5D
:1042C00008210848FDF7EBFF01210648FDF798FF9C
:1042D00001210448FDF794FE09B030BD000C0140F7
:1042E000001001400034014000B587B001210846AC
:1042F000FDF7F2F901210846FDF7FBF90121042041
:10430000FDF7EAF901210820FDF7E6F90121F74858
:10431000FCF791FF4FF40040ADF8000004208DF849
:1043200003006946F248FCF7B5FE0820ADF800002E
:1043300004208DF803006946EE48FCF7ABFE04A8A4
:10434000FDF72EFE0020ADF810004FF6FF70ADF81F
:1043500014000020ADF81600ADF8120004A94FF0CB
:104360008040FDF7F1FA00231A4603214FF0804008
:10437000FDF7F9FE01A8FDF726FE0A20ADF80C00B6
:1043800001A94007FDF773FD01218807FEF7FEF83C
:10439000012211469007FDF74EFE00214FF08040AC
:1043A000FEF7C2F801218807FDF72AFE07B000BD1D
:1043B00000B587B001210220FDF79BF901210420FF
:1043C000FDF78AF9C020ADF8000004208DF8030045
:1043D0006946C748FCF75EFE04A8FDF7E1FD002032
:1043E000ADF810004FF6FF70ADF814000020ADF8E6
:1043F0001600ADF8120004A9BF48FDF7A5FA002386
:104400001A460321BC48FDF7AEFE01A8FDF7DBFD0F
:104410000A20ADF80C0001A9B748FDF728FD0121DD
:10442000B548FEF7B3F801221146B348FDF703FE85
:104430000021B148FEF778F80121AF48FDF7E0FD13
:1044400007B000BD00B587B001210420FDF751F988
:1044500001210820FDF740F9C020ADF8000004203C
:104460008DF803006946A348FCF714FE04A8FDF785
:1044700097FD0020ADF810004FF6FF70ADF8140066
:104480000020ADF81600ADF8120004A99B48FDF716
:104490005BFA00231A4603219848FDF764FE01A841
:1044A000FDF791FD0A20ADF80C0001A99348FDF736
:1044B000DEFC01219148FEF769F8012211468F4880
:1044C000FDF7B9FD00218D48FEF72EF801218B483C
:1044D000FDF796FD07B000BD00B587B001210820AB
:1044E000FDF707F901210420FDF7F6F80320ADF8E8
:1044F000000004208DF8030069467D48FCF7CAFDE2
:1045000004A8FDF74DFD0020ADF810004FF6FF7038
:10451000ADF814000020ADF81600ADF8120004A9A3
:104520007748FDF711FA00231A4603217448FDF776
:104530001AFE01A8FDF747FD0A20ADF80C0001A9FD
:104540006F48FDF794FC01216D48FEF71FF801222A
:1045500011466B48FDF76FFD00216948FDF7E4FF48
:1045600001216748FDF74CFD07B000BD0146022957
:1045700006D003290DD0042914D0052924D11AE02E
:104580004FF08042928C10B200224FF080439A8408
:104590001CE0594A2432128810B20022564B2433B0
:1045A0001A8013E0554A2432128810B20022534B6D
:1045B00024331A800AE0524A2432128810B20022B0
:1045C0004F4B24331A8001E0002000BF00BF70472A
:1045D0004FF08040008A4FF08040008A20F00100B8
:1045E0004FF08041088270474348103000884248AD
:1045F0001030008820F001003F49103108807047DA
:104600003E48103000883D481030008820F00100FE
:104610003A491031088070473948103000883848CE
:104620001030008820F001003549103108807047B3
:1046300000B589B00121C802FDF74EF80121042020
:10464000FDF74AF84FF48070ADF8040018208DF89B
:10465000070003208DF8060001A92548FCF71AFD84
:1046600006A8FDF79DFC41F61F40ADF81800C720D5
:10467000ADF81C000020ADF81E00ADF81A0006A928
:104680002048FDF761F96020ADF808000120ADF881
:104690000A001920ADF80E000020ADF8100002A9A4
:1046A0001848FDF78EF901211648FDF7B5FC0821E1
:1046B0001448FDF7D5FD01211248FDF7A1FD0121A8
:1046C0001048FDF79DFC09B000BD10B501210D4853
:1046D000FDF75FFF40B101210A48FDF76BFF0A4873
:1046E0000068401C0849086010BD00000001180067
:1046F00000080140000C0140000400400008004098
:10470000000C0040002C01405401002008B501219C
:104710000820FCF7E1FF4FF44060ADF800001020E6
:104720008DF8030003208DF802006946F748FCF776
:10473000B1FC08BD10B5F548001D006820F47040BC
:10474000F249091D08600846006840F440500860BE
:104750000120EF490860EF48D0F82C0108B900208B
:1047600010BD0120EA49091F0860FEF744F9002046
:10477000E849C1F8AC01E6488038006808B100207B
:10478000EEE70120FEF737F90020E149091F086034
:104790000120E5E710B5DD48001D006820F47040F9
:1047A000DA49091D08600846006840F44050086076
:1047B0000020D749091F0860D649C1F8AC01012083
:1047C000FEF719F90120D249091F0860D149C1F843
:1047D000AC01FEF710F910BD10B50024CB48001D48
:1047E000006820F47040C949091D08600846006847
:1047F00040F4004008600120C5490860FEF7FBF85E
:104800000120C449C1F8A801FEF7F5F80AE0601CD0
:10481000C4B2322C03DDFFF7BDFF002010BD012024
:10482000FEF7E9F8BA48803800680028EFD1B849A7
:10483000091F08600120F1E710B50020B449091FE5
:104840000860B248001D006820F47040AF49091D9F
:1048500008600846006840F4405008600020AD49F8
:10486000C1F8AC010120FEF7C6F80120A849091FD4
:104870000860FEF7C0F80020A649C1F8A80110BDE5
:1048800010B50020A249091F0860A048001D00685B
:1048900020F470409D49091D08600846006840F4F6
:1048A0004050086001209B49C1F8AC01FEF7A3F815
:1048B00001209749091F0860FEF79DF800209549DF
:1048C000C1F8A80110BD70B504469048001D0068ED
:1048D00020F470408D49091D08600846006840F4C6
:1048E0004050086000208A49091F0860002516E032
:1048F000E009874908606006040E0120FEF77BF896
:1049000001208449C1F8A801FEF775F8002080490C
:10491000091F08600120FEF76EF8681CC5B2082D5B
:10492000E6DB70BD2DE9F04105460E461746984678
:10493000FFF700FF10B90120BDE8F0816906080EFD
:10494000FFF7C1FFFFF748FF18B9FFF723FF01206A
:10495000F2E73046FFF7B7FFFFF73EFF00240BE01A
:1049600018F80400FFF7AFFFFFF736FF18B9FFF79D
:1049700011FF0020E0E7641CBC42F1DBFFF70AFFF7
:104980000020D9E770B5054600246048001D006886
:1049900020F470405D49091D08600846006840F435
:1049A00000400860002617E000205949091F0860F0
:1049B0000220FEF720F801205649C1F8A801600640
:1049C000040E53488038006808B1601CC4B202204D
:1049D000FEF711F8701CC6B2082EE5DB15B1FFF723
:1049E0002BFF01E0FFF74CFF204670BD2DE9F041A1
:1049F00006460F4614461D46FFF79CFE10B90120DF
:104A0000BDE8F0817106080EFFF75DFFFFF7E4FED9
:104A100018B9FFF7BFFE0120F2E73846FFF753FF52
:104A2000FFF7DAFEFFF786FE012101EB4601C8B26F
:104A3000FFF749FFFFF7D0FE0DE0012C04D1002065
:104A4000FFF7A0FF287003E00120FFF79BFF28700D
:104A50006D1C601EC4B2002CEFD1FFF79BFE00203E
:104A6000CEE770B505460E460024FFF763FE2846E4
:104A7000FFF729FF641CFFF7AFFE3046FFF723FF67
:104A8000641CFFF7A9FEFFF755FE691CC8B2FFF7CB
:104A90001AFF641CFFF7A0FE0020FFF773FF044617
:104AA000FFF778FE204670BD2DE9F04107468846A5
:104AB00015461E460024FFF73DFE3846FFF703FF6C
:104AC000FFF78AFE4046FFF7FEFEFFF785FEFFF781
:104AD00031FE791CC8B2FFF7F6FEFFF77DFE00BF7E
:104AE0000DE0681EA04204D00120FFF74BFF3055B7
:104AF00003E00020FFF746FF3055601CC4B2AC4213
:104B0000EFDBFFF747FE2046BDE8F081000C0140D7
:104B1000AC812142008021422DE9F04180460D46C2
:104B200016461F460024FFF705FE4046FFF7CBFE62
:104B3000FFF752FE2846FFF7C6FEFFF74DFE00BF07
:104B400006E0385DFFF7BFFEFFF746FE601CC4B20B
:104B5000B442F6DBFFF71EFE0120BDE8F08170B520
:104B600005460E46144631462846FFF77AFF207068
:104B7000012070BD37B504460D4602AB012229461F
:104B80002046FFF7C9FF3EBD2DE9F843074688469A
:104B900014461D46089E6A4641463846FFF7DFFF29
:104BA00028B3601CFF2101FA00F0C4F10801294478
:104BB000491EFF220A41104300F0FF09C5F1080019
:104BC00006FA00F0C6B2C4F1070006419DF80000E5
:104BD00000EA090000909DF80000304300909DF825
:104BE000002041463846FFF7C5FFBDE8F8830020A6
:104BF000FBE7F8B506460F4614461D466A46394699
:104C00003046FFF7ACFF2DB10120A0409DF8001009
:104C1000084305E00120A0409DF8001021EA0000B3
:104C2000C0B200909DF8002039463046FFF7A2FF41
:104C3000F8BD00001FB501210846FCF74DFD01211C
:104C40000820FCF749FD4FF40040ADF80C00482067
:104C50008DF80F0003A91248FCF71CFA0F21012060
:104C6000FCF72EFB4FF40040019000208DF8080067
:104C70000C208DF8090001208DF80A0001A8FCF72E
:104C800029F928208DF8000001208DF801008DF809
:104C900002008DF803006846FBF7F1FC1FBD000021
:104CA000000C01403649088000BF3549091F0988BA
:104CB00001F040010029F8D0704710B586B00446D5
:104CC00001210846FCF708FD01211020FCF704FD36
:104CD00001218804FCF70DFD01212A48FCF7ABFAFD
:104CE0004FF48060ADF8140003208DF816001020FA
:104CF0008DF8170005A92448FCF7CCF901202349B9
:104D00000860C002ADF8140048208DF8170005A90E
:104D10001D48FCF7BFF927208DF8000000208DF812
:104D200001008DF8020001208DF803006846FBF7B2
:104D3000A6FC01940020ADF80800ADF80A00ADF81B
:104D40000C00ADF810000420ADF80E0001A90C48CD
:104D5000001FFDF776FC012240F225510848001F94
:104D6000FDF707FD012240F224410548001FFDF731
:104D700000FD01210248001FFDF7EFFC06B010BD49
:104D8000044800401000140000100140A801224215
:104D90002DE9F04107460D4616461C4601210846FE
:104DA000FCF78DFC3846FBF75DFF6E4804806E48CB
:104DB0000560466010206C4988600846C460002089
:104DC00008618020486100208861C8612020086255
:104DD000C0014862002088623846FBF7E5FFBDE865
:104DE000F08110B5044600212046FCF708F85D4824
:104DF00001885E48FCF718F801212046FBF7FFFF09
:104E000010BD2DE9F04107460D4616461C4601210E
:104E10000846FCF754FC3846FBF724FF544804804E
:104E200051480560466010204F4988600846C460BC
:104E3000002008618020486100208861C861086204
:104E40004FF400504862002088623846FBF7ACFF00
:104E5000BDE8F08110B5044600212046FBF7CFFFE6
:104E60004348018841483C30FBF7DEFF01212046E2
:104E7000FBF7C5FF10BD10B5044600212046FBF727
:104E8000BEFF3C48018839481438FBF7CDFF0121AB
:104E90002046FBF7B4FF10BD2DE9F04107460D4653
:104EA00016461C4601210846FCF709FC3846FBF76C
:104EB000D9FE304804802C480560466010202A49FD
:104EC00088600846C4600020086180204861002096
:104ED0008861C86120200862000248620020886260
:104EE0003846FBF761FF21481438FFF7C4FFBDE8DF
:104EF000F08170B505460C4605B10CB9002070BDB7
:104F000000211A483C30FBF77AFFA1B217483C3029
:104F1000FBF78AFF012115483C30FBF770FF09E0E1
:104F20004FF00070FBF7A5FF20B14FF00070FBF7CA
:104F300095FF00E0F4E700BF2046E0E70FB438B586
:104F400005A8009081210C48009B049A04F00CFBFA
:104F500004460020009021460748FFF7CAFF38BCEE
:104F60005DF814FB58010020940700204400024023
:104F70005A0100205C010020440200202DE9F04786
:104F80000446204607F0D8FA0546EC480168284652
:104F900007F032F9E9490860204607F0CDFA80466B
:104FA000E7480168404607F025FC0746E5480168E8
:104FB000384607F021FB0546E3480168DF480068F2
:104FC00007F01AFB8046204607F0B6FA8146DF4814
:104FD0000168484607F010FB0746414607F00CF908
:104FE0000646294607F008F9D9490860204607F027
:104FF000A3FAD3490860D7480068404207F09CFAFA
:105000000546D5480168284607F0C2FB06D2D148BC
:105010000068404207F090FACF490860CD48006828
:1050200007F08AFA0546CC480168284607F0B0FA2E
:1050300005D2C848006807F07FFAC7490860C5482C
:105040000068404207F078FA0546C44801682846DF
:1050500007F09EFB06D2BF480068404207F06CFA9A
:10506000BE490860BB48006807F066FA0546BB48C1
:105070000168284607F08CFA05D2B648006807F0A8
:105080005BFAB6490860B3480068404207F054FA3A
:105090000546AF480168284607F07AFB06D2AD48BE
:1050A0000068404207F048FAA9490860A94800682A
:1050B00007F042FA0546A6480168284607F068FA54
:1050C00005D2A448006807F037FAA1490860BDE896
:1050D000F0870020A0490860A04908609C4908604A
:1050E000704770B505460C4655B1204607F03CFAAE
:1050F000994908600020994908609549086009E0CD
:10510000604207F019FA944908600020934908604A
:105110008F49086070BD70B505460C465DB1002032
:105120008D490860604207F007FA8C49086000204A
:10513000874908600AE0002087490860204607F098
:1051400013FA8649086000208149086070BD2DE986
:10515000F04100208249086001208249C1F88401A1
:1051600081487E49086000207B4908607F4840886C
:105170007F490988C1EB8000642148437D49098843
:105180007B4A1288891A90FBF1F07B4908607748C6
:105190000088012803D108460068086019E07348B8
:1051A0000088022805D174480068404272490860AE
:1051B0000FE06E480088052803D164206E4908601E
:1051C00007E06A480088062803D16FF063006A4947
:1051D00008606948006807F0AFF90446674801684D
:1051E000204607F009F8654908606348006807F041
:1051F000A3F9074662480168384607F0FBFA0646FD
:1052000050480168304607F0F7F904464E480168F7
:105210005A48006807F0F0F907465748006807F059
:105220008BF9804649480168404607F0E5F9064693
:10523000394606F0E1FF0546214606F0DDFF444908
:1052400008604D48006807F077F94D49086041480B
:105250000068404207F070F904463F480168204664
:1052600007F096FA06D23B480068404207F064F91E
:10527000394908603748006807F05EF90446364847
:105280000168204607F084F905D23248006807F02B
:1052900053F9314908602F480068404207F04CF943
:1052A00004462E480168204607F072FA06D22948C3
:1052B0000068404207F040F9284908602548006826
:1052C00007F03AF9044625480168204607F060F9DE
:1052D00005D22048006807F02FF9204908601D48D2
:1052E0000068404207F028F9044619480168204642
:1052F00007F04EFA06D217480068404207F01CF942
:10530000134908601348006807F016F9044610486E
:105310000168204607F03CF905D20E48006807F006
:105320000BF90B49086011480088042804D10020BB
:105330000A49086006490860BDE8F0817401002050
:1053400078010020700100206C010020680100201D
:1053500098000020B0000020900000209400002061
:10536000A801224200002242000020C1C007002004
:105370006201002060010020640100207C01002007
:10538000800100202DE9F04704460E461546FE49EF
:10539000284607F031F9824684F0004931464846F4
:1053A00006F02AFF8046514607F024FA074607F028
:1053B00087F8F6490860F449284607F01DF9804649
:1053C0003146204606F018FF8146414607F012FAA2
:1053D000074607F075F8EE490860EB49284607F0E4
:1053E0000BF9824684F000493146484606F004FF36
:1053F0008046514606F000FF074607F061F8E54990
:105400000860E149284607F0F7F880463146204613
:1054100006F0F2FE8146414606F0EEFE074607F032
:105420004FF8DD490860BDE8F08770B504460020FC
:10543000002C06DD2518D94E35800025D84E356064
:1054400007E004F5E1552D1AD44E35800125D44EE0
:105450003560002909DDC1F5E1552D1ACF4E361D05
:1054600035800125CF4E356007E04D420544CB4ED7
:10547000361D35800025CB4E3560002A0ADDC2F589
:10548000E1552D1AC54E083635800125C44E361D0E
:10549000356008E055420544C04E08363580002589
:1054A000BF4E361D3560002B08DD1D18BB4E0C3677
:1054B00035800025BB4E361D356009E003F5E1550A
:1054C0002D1AB64E0C3635800125B64E361D356088
:1054D00070BDB54909684242914202DA4142B24A7E
:1054E0001160B1490968814201DDAF490860AF49E7
:1054F00009684242914202DA4142AC4A1160AB492A
:105500000968814201DDA9490860A9490968424248
:10551000914202DA4142A64A1160A54909688142D6
:1055200001DDA3490860A34909684242914202DAB9
:105530004142A04A11609F490968814201DD9D49AD
:10554000086070472DE9F05F04460D46601B9A49DC
:1055500008600846006806F0EFFF83469748016838
:10556000584607F049F8804693490968944A1268FA
:10557000881A06F0E1FF834692480168584607F012
:105580003BF88146414606F037FE07468E480068E4
:1055900006F0D2FF8246394606F02EFE064606F099
:1055A0008FFF8949086008460068B0F5E15F02DDB9
:1055B0004FF4E15008608448006810F5E15F02DABA
:1055C0008248814908607C4800687D4908607E48BF
:1055D0000068BDE8F09F2DE9F05F04460D46601BB2
:1055E0007B4908600846006806F0A6FF83467348BA
:1055F0000168584607F000F8804675490968754A01
:105600001268881A06F098FF83466E48016858466B
:1056100006F0F2FF8146414606F0EEFD07466E4871
:10562000006806F089FF8246394606F0E5FD064629
:1056300006F046FF6849086008460068B0F5E15F7B
:1056400002DD4FF4E15008606348006810F5E15F47
:1056500002DA5E48604908605D4800685D4908609C
:105660005D480068BDE8F09F2DE9F05F04460D46F7
:10567000601B5A4908600846006806F05DFF8346D3
:105680004E480168584606F0B7FF804653490968FE
:10569000534A1268881A06F04FFF8346494801684A
:1056A000584606F0A9FF8146414606F0A5FD07468B
:1056B0004C48006806F040FF8246394606F09CFDE3
:1056C000064606F0FDFE4749086008460068B0F54A
:1056D000E15F02DD4FF4E15008604248006810F5D8
:1056E000E15F02DA39483F4908603C4800683C49BC
:1056F00008603C480068BDE8F09F2DE9F05F044673
:105700000D46601B384908600846006806F014FF23
:1057100083462A480168584606F06EFF80463249A3
:105720000968324A1268881A06F006FF834625483F
:105730000168584606F060FF8146414606F05CFD70
:1057400007462B48006806F0F7FE8246394606F009
:1057500053FD064606F0B4FE254908600846006879
:10576000B0F5E15F02DD4FF4E150086020480068C9
:1057700010F5E15F02DA15481D4908601A48006813
:105780001A4908601A4835E01058393E4C0000208C
:105790005000002054000020580000203434014004
:1057A00090012242808121423C00002040000020E4
:1057B0004400002048000020D0010020AC00002060
:1057C000D8010020A8000020D4010020E0E3FFFF62
:1057D000C4010020CC010020C8010020B801002035
:1057E000C0010020BC010020AC010020B401002059
:1057F000B00100200068BDE8F09F10B58C48026839
:105800008C4801688C480068FFF7BCFD10BD10B5DE
:105810003220FEF711F90446022C07D187480078A0
:1058200008B9012000E0002084490870012C07D14C
:105830008348007808B9012000E000208049087002
:1058400010BD10B57F48006800287DD14FF400409E
:105850007D4908600220FEF789FE7C49086003202C
:10586000FEF784FE7A4908600420FEF77FFE40427E
:10587000784908600520FEF779FE404276490860C5
:105880007648007848B17648007830B975480068A5
:105890006E4909680844734908607248006840F21C
:1058A0006C71884207DB01206F49087000206D4948
:1058B00008606A4908706A480078012809D1674879
:1058C000007830B169480068604909680844674950
:1058D000086063480078022806D1654800685B4983
:1058E00009680844624908606248007830B15D4840
:1058F00000685649096808445A4908605E480078BB
:1059000001280BD15D480078401CC0B25B4908708B
:105910000A2803D1002008705749087058480078B9
:1059200008B9012000E000205549087008460078B9
:10593000012818D15348007878B9534800780128D5
:1059400005D05248007800E04BE0012805D15048CE
:1059500050490A6802604968416003F0F5F8FFF7B2
:1059600056FF002010BD6420FDF7FCFF3C48007886
:10597000022806D04848007818B948480068FFF760
:10598000FDFAFFF73AFF4648016830480068FFF724
:10599000B4FE44490860444801682D480068FFF798
:1059A00063FE42490860424801682A480068FFF7E0
:1059B00012FE404908604048016827480068FFF728
:1059C000C1FD3E4908604FF4FA50FFF782FD3B48A5
:1059D0000368384802683548016832480068FFF7B4
:1059E00024FD0020BEE7014640F25642914215DAFE
:1059F00001200022324B1A801B1D1A801B1D1A80A9
:105A00001B1D1A802F4B1A602F4BC3F880212D4B82
:105A10001B1D1A602C4BC3F8842100E00020704746
:105A20000146002901DA484200E0084670470000BC
:105A30009800002094000020900000200400002026
:105A4000030000203C812142140401400800002092
:105A50000C00002010000020140000201401002081
:105A6000CD0000209C010020A8010020A001002002
:105A7000A401002016010020650000206400002021
:105A8000840100207E0000207B0000207A0000209E
:105A90006900002071000020A901002010010020F1
:105AA0004C0000203C00002050000020400000205E
:105AB000540000204400002058000020480000202E
:105AC00034340140900122420080214238B504461E
:105AD000FB4890F82400C0B114B10220009001E00E
